{
    "_format": "hh-sol-artifact-1",
    "contractName": "BuyMeACoffee",
    "sourceName": "contracts/BuyMeACoffee.sol",
    "abi": [
        {
            "inputs": [],
            "stateMutability": "nonpayable",
            "type": "constructor"
        },
        {
            "anonymous": false,
            "inputs": [
                {
                    "indexed": true,
                    "internalType": "address",
                    "name": "from",
                    "type": "address"
                },
                {
                    "indexed": false,
                    "internalType": "string",
                    "name": "msg",
                    "type": "string"
                },
                {
                    "indexed": false,
                    "internalType": "string",
                    "name": "name",
                    "type": "string"
                },
                {
                    "indexed": false,
                    "internalType": "uint256",
                    "name": "time",
                    "type": "uint256"
                }
            ],
            "name": "NewMsg",
            "type": "event"
        },
        {
            "inputs": [
                {
                    "internalType": "string",
                    "name": "_name",
                    "type": "string"
                },
                {
                    "internalType": "string",
                    "name": "_msg",
                    "type": "string"
                }
            ],
            "name": "buyCoffee",
            "outputs": [],
            "stateMutability": "payable",
            "type": "function"
        },
        {
            "inputs": [],
            "name": "getMsges",
            "outputs": [
                {
                    "components": [
                        {
                            "internalType": "address",
                            "name": "from",
                            "type": "address"
                        },
                        {
                            "internalType": "string",
                            "name": "msg",
                            "type": "string"
                        },
                        {
                            "internalType": "string",
                            "name": "name",
                            "type": "string"
                        },
                        {
                            "internalType": "uint256",
                            "name": "time",
                            "type": "uint256"
                        }
                    ],
                    "internalType": "struct BuyMeACoffee.Msg[]",
                    "name": "",
                    "type": "tuple[]"
                }
            ],
            "stateMutability": "view",
            "type": "function"
        },
        {
            "inputs": [
                {
                    "internalType": "address",
                    "name": "_add",
                    "type": "address"
                }
            ],
            "name": "isFriend",
            "outputs": [
                {
                    "internalType": "bool",
                    "name": "",
                    "type": "bool"
                }
            ],
            "stateMutability": "view",
            "type": "function"
        },
        {
            "inputs": [],
            "name": "withDraw",
            "outputs": [],
            "stateMutability": "payable",
            "type": "function"
        }
    ],
    "bytecode": "0x608060405234801561001057600080fd5b5033600260006101000a81548173ffffffffffffffffffffffffffffffffffffffff021916908373ffffffffffffffffffffffffffffffffffffffff160217905550610e89806100616000396000f3fe60806040526004361061003f5760003560e01c80630fdb1c1014610044578063204206e11461004e57806368125a1b1461006a578063b4e51d01146100a7575b600080fd5b61004c6100d2565b005b610068600480360381019061006391906106d1565b6101c4565b005b34801561007657600080fd5b50610091600480360381019061008c91906107a7565b61033e565b60405161009e91906107ef565b60405180910390f35b3480156100b357600080fd5b506100bc610394565b6040516100c991906109dd565b60405180910390f35b600260009054906101000a900473ffffffffffffffffffffffffffffffffffffffff1673ffffffffffffffffffffffffffffffffffffffff163373ffffffffffffffffffffffffffffffffffffffff1614610162576040517f08c379a000000000000000000000000000000000000000000000000000000000815260040161015990610a5c565b60405180910390fd5b600260009054906101000a900473ffffffffffffffffffffffffffffffffffffffff1673ffffffffffffffffffffffffffffffffffffffff166108fc479081150290604051600060405180830381858888f193505050506101c257600080fd5b565b60003411610207576040517f08c379a00000000000000000000000000000000000000000000000000000000081526004016101fe90610ac8565b60405180910390fd5b600060405180608001604052803373ffffffffffffffffffffffffffffffffffffffff16815260200183815260200184815260200142815250908060018154018082558091505060019003906000526020600020906004020160009091909190915060008201518160000160006101000a81548173ffffffffffffffffffffffffffffffffffffffff021916908373ffffffffffffffffffffffffffffffffffffffff16021790555060208201518160010190816102c59190610cf4565b5060408201518160020190816102db9190610cf4565b506060820151816003015550503373ffffffffffffffffffffffffffffffffffffffff167ff089bb2ecde50d0d17937cb46726e2ef55c27607e4e41a573f81bb4cfa14572e82844260405161033293929190610e0e565b60405180910390a25050565b6000600160008373ffffffffffffffffffffffffffffffffffffffff1673ffffffffffffffffffffffffffffffffffffffff16815260200190815260200160002060009054906101000a900460ff169050919050565b60606000805480602002602001604051908101604052809291908181526020016000905b8282101561056e57838290600052602060002090600402016040518060800160405290816000820160009054906101000a900473ffffffffffffffffffffffffffffffffffffffff1673ffffffffffffffffffffffffffffffffffffffff1673ffffffffffffffffffffffffffffffffffffffff16815260200160018201805461044190610b17565b80601f016020809104026020016040519081016040528092919081815260200182805461046d90610b17565b80156104ba5780601f1061048f576101008083540402835291602001916104ba565b820191906000526020600020905b81548152906001019060200180831161049d57829003601f168201915b505050505081526020016002820180546104d390610b17565b80601f01602080910402602001604051908101604052809291908181526020018280546104ff90610b17565b801561054c5780601f106105215761010080835404028352916020019161054c565b820191906000526020600020905b81548152906001019060200180831161052f57829003601f168201915b50505050508152602001600382015481525050815260200190600101906103b8565b50505050905090565b6000604051905090565b600080fd5b600080fd5b600080fd5b600080fd5b6000601f19601f8301169050919050565b7f4e487b7100000000000000000000000000000000000000000000000000000000600052604160045260246000fd5b6105de82610595565b810181811067ffffffffffffffff821117156105fd576105fc6105a6565b5b80604052505050565b6000610610610577565b905061061c82826105d5565b919050565b600067ffffffffffffffff82111561063c5761063b6105a6565b5b61064582610595565b9050602081019050919050565b82818337600083830152505050565b600061067461066f84610621565b610606565b9050828152602081018484840111156106905761068f610590565b5b61069b848285610652565b509392505050565b600082601f8301126106b8576106b761058b565b5b81356106c8848260208601610661565b91505092915050565b600080604083850312156106e8576106e7610581565b5b600083013567ffffffffffffffff81111561070657610705610586565b5b610712858286016106a3565b925050602083013567ffffffffffffffff81111561073357610732610586565b5b61073f858286016106a3565b9150509250929050565b600073ffffffffffffffffffffffffffffffffffffffff82169050919050565b600061077482610749565b9050919050565b61078481610769565b811461078f57600080fd5b50565b6000813590506107a18161077b565b92915050565b6000602082840312156107bd576107bc610581565b5b60006107cb84828501610792565b91505092915050565b60008115159050919050565b6107e9816107d4565b82525050565b600060208201905061080460008301846107e0565b92915050565b600081519050919050565b600082825260208201905092915050565b6000819050602082019050919050565b61083f81610769565b82525050565b600081519050919050565b600082825260208201905092915050565b60005b8381101561087f578082015181840152602081019050610864565b60008484015250505050565b600061089682610845565b6108a08185610850565b93506108b0818560208601610861565b6108b981610595565b840191505092915050565b6000819050919050565b6108d7816108c4565b82525050565b60006080830160008301516108f56000860182610836565b506020830151848203602086015261090d828261088b565b91505060408301518482036040860152610927828261088b565b915050606083015161093c60608601826108ce565b508091505092915050565b600061095383836108dd565b905092915050565b6000602082019050919050565b60006109738261080a565b61097d8185610815565b93508360208202850161098f85610826565b8060005b858110156109cb57848403895281516109ac8582610947565b94506109b78361095b565b925060208a01995050600181019050610993565b50829750879550505050505092915050565b600060208201905081810360008301526109f78184610968565b905092915050565b600082825260208201905092915050565b7f4f6e6c79206f776e65722063616e206472696e6b20636f666665650000000000600082015250565b6000610a46601b836109ff565b9150610a5182610a10565b602082019050919050565b60006020820190508181036000830152610a7581610a39565b9050919050565b7f636f6666656520697320657870656e73697665206e6f77206461797300000000600082015250565b6000610ab2601c836109ff565b9150610abd82610a7c565b602082019050919050565b60006020820190508181036000830152610ae181610aa5565b9050919050565b7f4e487b7100000000000000000000000000000000000000000000000000000000600052602260045260246000fd5b60006002820490506001821680610b2f57607f821691505b602082108103610b4257610b41610ae8565b5b50919050565b60008190508160005260206000209050919050565b60006020601f8301049050919050565b600082821b905092915050565b600060088302610baa7fffffffffffffffffffffffffffffffffffffffffffffffffffffffffffffffff82610b6d565b610bb48683610b6d565b95508019841693508086168417925050509392505050565b6000819050919050565b6000610bf1610bec610be7846108c4565b610bcc565b6108c4565b9050919050565b6000819050919050565b610c0b83610bd6565b610c1f610c1782610bf8565b848454610b7a565b825550505050565b600090565b610c34610c27565b610c3f818484610c02565b505050565b5b81811015610c6357610c58600082610c2c565b600181019050610c45565b5050565b601f821115610ca857610c7981610b48565b610c8284610b5d565b81016020851015610c91578190505b610ca5610c9d85610b5d565b830182610c44565b50505b505050565b600082821c905092915050565b6000610ccb60001984600802610cad565b1980831691505092915050565b6000610ce48383610cba565b9150826002028217905092915050565b610cfd82610845565b67ffffffffffffffff811115610d1657610d156105a6565b5b610d208254610b17565b610d2b828285610c67565b600060209050601f831160018114610d5e5760008415610d4c578287015190505b610d568582610cd8565b865550610dbe565b601f198416610d6c86610b48565b60005b82811015610d9457848901518255600182019150602085019450602081019050610d6f565b86831015610db15784890151610dad601f891682610cba565b8355505b6001600288020188555050505b505050505050565b6000610dd182610845565b610ddb81856109ff565b9350610deb818560208601610861565b610df481610595565b840191505092915050565b610e08816108c4565b82525050565b60006060820190508181036000830152610e288186610dc6565b90508181036020830152610e3c8185610dc6565b9050610e4b6040830184610dff565b94935050505056fea2646970667358221220b78fd08cdaf1d29c62497f47b1b94561e0eb882d32103e7cd9de48f15ca31b3c64736f6c63430008110033",
    "linkReferences": {},
    "deployedLinkReferences": {}
}